{
   "abi": [
      {
         "type": "constructor",
         "inputs": [],
         "stateMutability": "nonpayable"
      },
      {
         "type": "function",
         "name": "advanceNonce",
         "inputs": [
            {
               "name": "amount",
               "type": "uint8",
               "internalType": "uint8"
            }
         ],
         "outputs": [],
         "stateMutability": "nonpayable"
      },
      {
         "type": "function",
         "name": "authority",
         "inputs": [],
         "outputs": [
            {
               "name": "",
               "type": "address",
               "internalType": "address"
            }
         ],
         "stateMutability": "view"
      },
      {
         "type": "function",
         "name": "cancelBatch",
         "inputs": [
            {
               "name": "orders",
               "type": "tuple[]",
               "internalType": "struct ILimitOrderEngine.Order[]",
               "components": [
                  {
                     "name": "salt",
                     "type": "uint256",
                     "internalType": "uint256"
                  },
                  {
                     "name": "expiry",
                     "type": "uint256",
                     "internalType": "uint256"
                  },
                  {
                     "name": "nonce",
                     "type": "uint256",
                     "internalType": "uint256"
                  },
                  {
                     "name": "orderType",
                     "type": "uint8",
                     "internalType": "enum ILimitOrderEngine.OrderType"
                  },
                  {
                     "name": "PT",
                     "type": "address",
                     "internalType": "address"
                  },
                  {
                     "name": "maker",
                     "type": "address",
                     "internalType": "address"
                  },
                  {
                     "name": "receiver",
                     "type": "address",
                     "internalType": "address"
                  },
                  {
                     "name": "makingAmount",
                     "type": "uint256",
                     "internalType": "uint256"
                  },
                  {
                     "name": "impliedRate",
                     "type": "uint256",
                     "internalType": "uint256"
                  },
                  {
                     "name": "permit",
                     "type": "bytes",
                     "internalType": "bytes"
                  }
               ]
            }
         ],
         "outputs": [],
         "stateMutability": "nonpayable"
      },
      {
         "type": "function",
         "name": "cancelSingle",
         "inputs": [
            {
               "name": "order",
               "type": "tuple",
               "internalType": "struct ILimitOrderEngine.Order",
               "components": [
                  {
                     "name": "salt",
                     "type": "uint256",
                     "internalType": "uint256"
                  },
                  {
                     "name": "expiry",
                     "type": "uint256",
                     "internalType": "uint256"
                  },
                  {
                     "name": "nonce",
                     "type": "uint256",
                     "internalType": "uint256"
                  },
                  {
                     "name": "orderType",
                     "type": "uint8",
                     "internalType": "enum ILimitOrderEngine.OrderType"
                  },
                  {
                     "name": "PT",
                     "type": "address",
                     "internalType": "address"
                  },
                  {
                     "name": "maker",
                     "type": "address",
                     "internalType": "address"
                  },
                  {
                     "name": "receiver",
                     "type": "address",
                     "internalType": "address"
                  },
                  {
                     "name": "makingAmount",
                     "type": "uint256",
                     "internalType": "uint256"
                  },
                  {
                     "name": "impliedRate",
                     "type": "uint256",
                     "internalType": "uint256"
                  },
                  {
                     "name": "permit",
                     "type": "bytes",
                     "internalType": "bytes"
                  }
               ]
            }
         ],
         "outputs": [],
         "stateMutability": "nonpayable"
      },
      {
         "type": "function",
         "name": "eip712Domain",
         "inputs": [],
         "outputs": [
            {
               "name": "fields",
               "type": "bytes1",
               "internalType": "bytes1"
            },
            {
               "name": "name",
               "type": "string",
               "internalType": "string"
            },
            {
               "name": "version",
               "type": "string",
               "internalType": "string"
            },
            {
               "name": "chainId",
               "type": "uint256",
               "internalType": "uint256"
            },
            {
               "name": "verifyingContract",
               "type": "address",
               "internalType": "address"
            },
            {
               "name": "salt",
               "type": "bytes32",
               "internalType": "bytes32"
            },
            {
               "name": "extensions",
               "type": "uint256[]",
               "internalType": "uint256[]"
            }
         ],
         "stateMutability": "view"
      },
      {
         "type": "function",
         "name": "feeRecipient",
         "inputs": [],
         "outputs": [
            {
               "name": "",
               "type": "address",
               "internalType": "address"
            }
         ],
         "stateMutability": "view"
      },
      {
         "type": "function",
         "name": "hashOrder",
         "inputs": [
            {
               "name": "order",
               "type": "tuple",
               "internalType": "struct ILimitOrderEngine.Order",
               "components": [
                  {
                     "name": "salt",
                     "type": "uint256",
                     "internalType": "uint256"
                  },
                  {
                     "name": "expiry",
                     "type": "uint256",
                     "internalType": "uint256"
                  },
                  {
                     "name": "nonce",
                     "type": "uint256",
                     "internalType": "uint256"
                  },
                  {
                     "name": "orderType",
                     "type": "uint8",
                     "internalType": "enum ILimitOrderEngine.OrderType"
                  },
                  {
                     "name": "PT",
                     "type": "address",
                     "internalType": "address"
                  },
                  {
                     "name": "maker",
                     "type": "address",
                     "internalType": "address"
                  },
                  {
                     "name": "receiver",
                     "type": "address",
                     "internalType": "address"
                  },
                  {
                     "name": "makingAmount",
                     "type": "uint256",
                     "internalType": "uint256"
                  },
                  {
                     "name": "impliedRate",
                     "type": "uint256",
                     "internalType": "uint256"
                  },
                  {
                     "name": "permit",
                     "type": "bytes",
                     "internalType": "bytes"
                  }
               ]
            }
         ],
         "outputs": [
            {
               "name": "",
               "type": "bytes32",
               "internalType": "bytes32"
            }
         ],
         "stateMutability": "view"
      },
      {
         "type": "function",
         "name": "increaseNonce",
         "inputs": [],
         "outputs": [],
         "stateMutability": "nonpayable"
      },
      {
         "type": "function",
         "name": "initialize",
         "inputs": [
            {
               "name": "_feeRecipient",
               "type": "address",
               "internalType": "address"
            },
            {
               "name": "_router",
               "type": "address",
               "internalType": "address"
            },
            {
               "name": "_initialAuthority",
               "type": "address",
               "internalType": "address"
            }
         ],
         "outputs": [],
         "stateMutability": "nonpayable"
      },
      {
         "type": "function",
         "name": "isConsumingScheduledOp",
         "inputs": [],
         "outputs": [
            {
               "name": "",
               "type": "bytes4",
               "internalType": "bytes4"
            }
         ],
         "stateMutability": "view"
      },
      {
         "type": "function",
         "name": "nonce",
         "inputs": [
            {
               "name": "",
               "type": "address",
               "internalType": "address"
            }
         ],
         "outputs": [
            {
               "name": "",
               "type": "uint256",
               "internalType": "uint256"
            }
         ],
         "stateMutability": "view"
      },
      {
         "type": "function",
         "name": "nonceEquals",
         "inputs": [
            {
               "name": "makerAddress",
               "type": "address",
               "internalType": "address"
            },
            {
               "name": "makerNonce",
               "type": "uint256",
               "internalType": "uint256"
            }
         ],
         "outputs": [
            {
               "name": "",
               "type": "bool",
               "internalType": "bool"
            }
         ],
         "stateMutability": "view"
      },
      {
         "type": "function",
         "name": "orderStatuses",
         "inputs": [
            {
               "name": "orderHashes",
               "type": "bytes32[]",
               "internalType": "bytes32[]"
            }
         ],
         "outputs": [
            {
               "name": "remainings",
               "type": "uint256[]",
               "internalType": "uint256[]"
            },
            {
               "name": "filledAmounts",
               "type": "uint256[]",
               "internalType": "uint256[]"
            }
         ],
         "stateMutability": "view"
      },
      {
         "type": "function",
         "name": "orderStatusesRaw",
         "inputs": [
            {
               "name": "orderHashes",
               "type": "bytes32[]",
               "internalType": "bytes32[]"
            }
         ],
         "outputs": [
            {
               "name": "remainingsRaw",
               "type": "uint256[]",
               "internalType": "uint256[]"
            },
            {
               "name": "filledAmounts",
               "type": "uint256[]",
               "internalType": "uint256[]"
            }
         ],
         "stateMutability": "view"
      },
      {
         "type": "function",
         "name": "pause",
         "inputs": [],
         "outputs": [],
         "stateMutability": "nonpayable"
      },
      {
         "type": "function",
         "name": "paused",
         "inputs": [],
         "outputs": [
            {
               "name": "",
               "type": "bool",
               "internalType": "bool"
            }
         ],
         "stateMutability": "view"
      },
      {
         "type": "function",
         "name": "router",
         "inputs": [],
         "outputs": [
            {
               "name": "",
               "type": "address",
               "internalType": "address"
            }
         ],
         "stateMutability": "view"
      },
      {
         "type": "function",
         "name": "setAuthority",
         "inputs": [
            {
               "name": "newAuthority",
               "type": "address",
               "internalType": "address"
            }
         ],
         "outputs": [],
         "stateMutability": "nonpayable"
      },
      {
         "type": "function",
         "name": "setFeeRecipient",
         "inputs": [
            {
               "name": "newFeeRecipient",
               "type": "address",
               "internalType": "address"
            }
         ],
         "outputs": [],
         "stateMutability": "nonpayable"
      },
      {
         "type": "function",
         "name": "setRouter",
         "inputs": [
            {
               "name": "newRouter",
               "type": "address",
               "internalType": "address"
            }
         ],
         "outputs": [],
         "stateMutability": "nonpayable"
      },
      {
         "type": "function",
         "name": "transferPostValidation",
         "inputs": [
            {
               "name": "receiver",
               "type": "address",
               "internalType": "address"
            },
            {
               "name": "params",
               "type": "tuple[]",
               "internalType": "struct ILimitOrderEngine.FillOrderParams[]",
               "components": [
                  {
                     "name": "order",
                     "type": "tuple",
                     "internalType": "struct ILimitOrderEngine.Order",
                     "components": [
                        {
                           "name": "salt",
                           "type": "uint256",
                           "internalType": "uint256"
                        },
                        {
                           "name": "expiry",
                           "type": "uint256",
                           "internalType": "uint256"
                        },
                        {
                           "name": "nonce",
                           "type": "uint256",
                           "internalType": "uint256"
                        },
                        {
                           "name": "orderType",
                           "type": "uint8",
                           "internalType": "enum ILimitOrderEngine.OrderType"
                        },
                        {
                           "name": "PT",
                           "type": "address",
                           "internalType": "address"
                        },
                        {
                           "name": "maker",
                           "type": "address",
                           "internalType": "address"
                        },
                        {
                           "name": "receiver",
                           "type": "address",
                           "internalType": "address"
                        },
                        {
                           "name": "makingAmount",
                           "type": "uint256",
                           "internalType": "uint256"
                        },
                        {
                           "name": "impliedRate",
                           "type": "uint256",
                           "internalType": "uint256"
                        },
                        {
                           "name": "permit",
                           "type": "bytes",
                           "internalType": "bytes"
                        }
                     ]
                  },
                  {
                     "name": "signature",
                     "type": "bytes",
                     "internalType": "bytes"
                  },
                  {
                     "name": "makingAmount",
                     "type": "uint256",
                     "internalType": "uint256"
                  },
                  {
                     "name": "maxTaking",
                     "type": "uint256",
                     "internalType": "uint256"
                  }
               ]
            },
            {
               "name": "validatedResults",
               "type": "tuple[]",
               "internalType": "struct ILimitOrderEngine.OrderResult[]",
               "components": [
                  {
                     "name": "actualTaking",
                     "type": "uint256",
                     "internalType": "uint256"
                  },
                  {
                     "name": "actualMaking",
                     "type": "uint256",
                     "internalType": "uint256"
                  }
               ]
            },
            {
               "name": "takerToken",
               "type": "address",
               "internalType": "contract IERC20"
            },
            {
               "name": "totalFees",
               "type": "uint256",
               "internalType": "uint256"
            }
         ],
         "outputs": [],
         "stateMutability": "nonpayable"
      },
      {
         "type": "function",
         "name": "unpause",
         "inputs": [],
         "outputs": [],
         "stateMutability": "nonpayable"
      },
      {
         "type": "function",
         "name": "validateOrdersAndUpdateStatus",
         "inputs": [
            {
               "name": "params",
               "type": "tuple[]",
               "internalType": "struct ILimitOrderEngine.FillOrderParams[]",
               "components": [
                  {
                     "name": "order",
                     "type": "tuple",
                     "internalType": "struct ILimitOrderEngine.Order",
                     "components": [
                        {
                           "name": "salt",
                           "type": "uint256",
                           "internalType": "uint256"
                        },
                        {
                           "name": "expiry",
                           "type": "uint256",
                           "internalType": "uint256"
                        },
                        {
                           "name": "nonce",
                           "type": "uint256",
                           "internalType": "uint256"
                        },
                        {
                           "name": "orderType",
                           "type": "uint8",
                           "internalType": "enum ILimitOrderEngine.OrderType"
                        },
                        {
                           "name": "PT",
                           "type": "address",
                           "internalType": "address"
                        },
                        {
                           "name": "maker",
                           "type": "address",
                           "internalType": "address"
                        },
                        {
                           "name": "receiver",
                           "type": "address",
                           "internalType": "address"
                        },
                        {
                           "name": "makingAmount",
                           "type": "uint256",
                           "internalType": "uint256"
                        },
                        {
                           "name": "impliedRate",
                           "type": "uint256",
                           "internalType": "uint256"
                        },
                        {
                           "name": "permit",
                           "type": "bytes",
                           "internalType": "bytes"
                        }
                     ]
                  },
                  {
                     "name": "signature",
                     "type": "bytes",
                     "internalType": "bytes"
                  },
                  {
                     "name": "makingAmount",
                     "type": "uint256",
                     "internalType": "uint256"
                  },
                  {
                     "name": "maxTaking",
                     "type": "uint256",
                     "internalType": "uint256"
                  }
               ]
            }
         ],
         "outputs": [
            {
               "name": "validatedResults",
               "type": "tuple[]",
               "internalType": "struct ILimitOrderEngine.OrderResult[]",
               "components": [
                  {
                     "name": "actualTaking",
                     "type": "uint256",
                     "internalType": "uint256"
                  },
                  {
                     "name": "actualMaking",
                     "type": "uint256",
                     "internalType": "uint256"
                  }
               ]
            },
            {
               "name": "takerToken",
               "type": "address",
               "internalType": "address"
            },
            {
               "name": "totalTaking",
               "type": "uint256",
               "internalType": "uint256"
            },
            {
               "name": "totalFees",
               "type": "uint256",
               "internalType": "uint256"
            }
         ],
         "stateMutability": "nonpayable"
      },
      {
         "type": "event",
         "name": "AuthorityUpdated",
         "inputs": [
            {
               "name": "authority",
               "type": "address",
               "indexed": false,
               "internalType": "address"
            }
         ],
         "anonymous": false
      },
      {
         "type": "event",
         "name": "EIP712DomainChanged",
         "inputs": [],
         "anonymous": false
      },
      {
         "type": "event",
         "name": "FeeRecipientUpdated",
         "inputs": [
            {
               "name": "newFeeRecipient",
               "type": "address",
               "indexed": true,
               "internalType": "address"
            }
         ],
         "anonymous": false
      },
      {
         "type": "event",
         "name": "Initialized",
         "inputs": [
            {
               "name": "version",
               "type": "uint64",
               "indexed": false,
               "internalType": "uint64"
            }
         ],
         "anonymous": false
      },
      {
         "type": "event",
         "name": "NonceIncreased",
         "inputs": [
            {
               "name": "maker",
               "type": "address",
               "indexed": true,
               "internalType": "address"
            },
            {
               "name": "oldNonce",
               "type": "uint256",
               "indexed": false,
               "internalType": "uint256"
            },
            {
               "name": "newNonce",
               "type": "uint256",
               "indexed": false,
               "internalType": "uint256"
            }
         ],
         "anonymous": false
      },
      {
         "type": "event",
         "name": "OrderCanceled",
         "inputs": [
            {
               "name": "maker",
               "type": "address",
               "indexed": false,
               "internalType": "address"
            },
            {
               "name": "orderHash",
               "type": "bytes32",
               "indexed": false,
               "internalType": "bytes32"
            }
         ],
         "anonymous": false
      },
      {
         "type": "event",
         "name": "OrderFilled",
         "inputs": [
            {
               "name": "orderHash",
               "type": "bytes32",
               "indexed": false,
               "internalType": "bytes32"
            },
            {
               "name": "actualMaking",
               "type": "uint256",
               "indexed": false,
               "internalType": "uint256"
            }
         ],
         "anonymous": false
      },
      {
         "type": "event",
         "name": "Paused",
         "inputs": [
            {
               "name": "account",
               "type": "address",
               "indexed": false,
               "internalType": "address"
            }
         ],
         "anonymous": false
      },
      {
         "type": "event",
         "name": "RouterUpdated",
         "inputs": [
            {
               "name": "newRouter",
               "type": "address",
               "indexed": true,
               "internalType": "address"
            }
         ],
         "anonymous": false
      },
      {
         "type": "event",
         "name": "Unpaused",
         "inputs": [
            {
               "name": "account",
               "type": "address",
               "indexed": false,
               "internalType": "address"
            }
         ],
         "anonymous": false
      },
      {
         "type": "error",
         "name": "AccessManagedInvalidAuthority",
         "inputs": [
            {
               "name": "authority",
               "type": "address",
               "internalType": "address"
            }
         ]
      },
      {
         "type": "error",
         "name": "AccessManagedRequiredDelay",
         "inputs": [
            {
               "name": "caller",
               "type": "address",
               "internalType": "address"
            },
            {
               "name": "delay",
               "type": "uint32",
               "internalType": "uint32"
            }
         ]
      },
      {
         "type": "error",
         "name": "AccessManagedUnauthorized",
         "inputs": [
            {
               "name": "caller",
               "type": "address",
               "internalType": "address"
            }
         ]
      },
      {
         "type": "error",
         "name": "AlreadyFilled",
         "inputs": [
            {
               "name": "orderId",
               "type": "bytes32",
               "internalType": "bytes32"
            }
         ]
      },
      {
         "type": "error",
         "name": "EnforcedPause",
         "inputs": []
      },
      {
         "type": "error",
         "name": "ExpectedPause",
         "inputs": []
      },
      {
         "type": "error",
         "name": "IncompatibleOrderBatch",
         "inputs": []
      },
      {
         "type": "error",
         "name": "InvalidInitialization",
         "inputs": []
      },
      {
         "type": "error",
         "name": "InvalidOrderType",
         "inputs": []
      },
      {
         "type": "error",
         "name": "MaxTakingExceeded",
         "inputs": []
      },
      {
         "type": "error",
         "name": "NoValidOrder",
         "inputs": []
      },
      {
         "type": "error",
         "name": "NotInitializing",
         "inputs": []
      },
      {
         "type": "error",
         "name": "NotMaker",
         "inputs": []
      },
      {
         "type": "error",
         "name": "NotRouter",
         "inputs": []
      },
      {
         "type": "error",
         "name": "OrderNotExisting",
         "inputs": [
            {
               "name": "orderId",
               "type": "bytes32",
               "internalType": "bytes32"
            }
         ]
      },
      {
         "type": "error",
         "name": "SafeCastOverflowedUintDowncast",
         "inputs": [
            {
               "name": "bits",
               "type": "uint8",
               "internalType": "uint8"
            },
            {
               "name": "value",
               "type": "uint256",
               "internalType": "uint256"
            }
         ]
      }
   ],
   "bytecode": {
      "object": "0x608060405234801562000010575f80fd5b50620000216200002760201b60201c565b620001ae565b5f620000386200012b60201b60201c565b9050805f0160089054906101000a900460ff161562000083576040517ff92ee8a900000000000000000000000000000000000000000000000000000000815260040160405180910390fd5b67ffffffffffffffff8016815f015f9054906101000a900467ffffffffffffffff1667ffffffffffffffff1614620001285767ffffffffffffffff815f015f6101000a81548167ffffffffffffffff021916908367ffffffffffffffff1602179055507fc7f505b2f371ae2175ee4913f4499e1f2633a7b5936321eed1cdaeb6115181d267ffffffffffffffff6040516200011f919062000193565b60405180910390a15b50565b5f806200013d6200014660201b60201c565b90508091505090565b5f7ff0c57e16840df040f15088dc2f81fe391c3923bec73e23a9662efc9c229c6a005f1b905090565b5f67ffffffffffffffff82169050919050565b6200018d816200016f565b82525050565b5f602082019050620001a85f83018462000182565b92915050565b616ac580620001bc5f395ff3fe608060405234801561000f575f80fd5b506004361061014b575f3560e01c80638456cb59116100c1578063c0c53b8b1161007a578063c0c53b8b14610380578063c0d786551461039c578063c53a0292146103b8578063cf6fc6e3146103c2578063e74b981b146103f2578063f887ea401461040e5761014b565b80638456cb59146102c757806384b0196e146102d15780638fb36037146102f5578063ada0844914610313578063bd8f11781461032f578063bf7e214f146103625761014b565b80635bd5f77d116101135780635bd5f77d146101f55780635c975abb1461022557806370ae92d21461024357806372c244a8146102735780637a9e5e4b1461028f5780637db458e5146102ab5761014b565b80630c0b8c9c1461014f57806319f752f61461018057806335ee3ffc1461019c5780633f4ba83a146101cd57806346904840146101d7575b5f80fd5b61016960048036038101906101649190614a1c565b61042c565b604051610177929190614b27565b60405180910390f35b61019a60048036038101906101959190615125565b610511565b005b6101b660048036038101906101b19190614a1c565b610853565b6040516101c4929190614b27565b60405180910390f35b6101d5610a4e565b005b6101df610a70565b6040516101ec91906151e3565b60405180910390f35b61020f600480360381019061020a91906151fc565b610a95565b60405161021c919061525b565b60405180910390f35b61022d610b08565b60405161023a919061528e565b60405180910390f35b61025d600480360381019061025891906152a7565b610b2a565b60405161026a91906152e1565b60405180910390f35b61028d60048036038101906102889190615330565b610b3e565b005b6102a960048036038101906102a491906152a7565b610c2f565b005b6102c560048036038101906102c0919061537e565b610d19565b005b6102cf610ec3565b005b6102d9610ee5565b6040516102ec9796959493929190615479565b60405180910390f35b6102fd610fee565b60405161030a9190615535565b60405180910390f35b61032d600480360381019061032891906155a3565b611027565b005b61034960048036038101906103449190615643565b611071565b6040516103599493929190615763565b60405180910390f35b61036a611746565b60405161037791906151e3565b60405180910390f35b61039a600480360381019061039591906157ad565b61177b565b005b6103b660048036038101906103b191906152a7565b6119f2565b005b6103c0611a90565b005b6103dc60048036038101906103d791906157fd565b611a9c565b6040516103e9919061528e565b60405180910390f35b61040c600480360381019061040791906152a7565b611ae4565b005b610416611b82565b60405161042391906151e3565b60405180910390f35b6060806104398484610853565b80925081935050505f5b8251811015610509575f6fffffffffffffffffffffffffffffffff168382815181106104725761047161583b565b5b6020026020010151036104d5578484828181106104925761049161583b565b5b905060200201356040517f84a19ff70000000000000000000000000000000000000000000000000000000081526004016104cc919061525b565b60405180910390fd5b60018382815181106104ea576104e961583b565b5b6020026020010181815103915081815250508080600101915050610443565b509250929050565b60655f9054906101000a900473ffffffffffffffffffffffffffffffffffffffff1673ffffffffffffffffffffffffffffffffffffffff163373ffffffffffffffffffffffffffffffffffffffff1614610597576040517f9165520100000000000000000000000000000000000000000000000000000000815260040160405180910390fd5b5f5b83518110156107ae575f8482815181106105b6576105b561583b565b5b60200260200101516020015103156107a3575f8582815181106105dc576105db61583b565b5b60200260200101515f015190505f6105f382611ba7565b905061060481836101200151611ddc565b8073ffffffffffffffffffffffffffffffffffffffff166323b872dd8360a001518a8987815181106106395761063861583b565b5b6020026020010151602001516040518463ffffffff1660e01b815260040161066393929190615868565b6020604051808303815f875af115801561067f573d5f803e3d5ffd5b505050506040513d601f19601f820116820180604052508101906106a391906158c7565b508473ffffffffffffffffffffffffffffffffffffffff1663a9059cbb8360c001518886815181106106d8576106d761583b565b5b60200260200101515f01516040518363ffffffff1660e01b81526004016107009291906158f2565b6020604051808303815f875af115801561071c573d5f803e3d5ffd5b505050506040513d601f19601f8201168201806040525081019061074091906158c7565b507ffec331350fce78ba658e082a71da20ac9f8d798a99b3c79681c8440cbfe77e0761076b83610a95565b87858151811061077e5761077d61583b565b5b602002602001015160200151604051610798929190615919565b60405180910390a150505b806001019050610599565b508173ffffffffffffffffffffffffffffffffffffffff1663a9059cbb60665f9054906101000a900473ffffffffffffffffffffffffffffffffffffffff16836040518363ffffffff1660e01b815260040161080b9291906158f2565b6020604051808303815f875af1158015610827573d5f803e3d5ffd5b505050506040513d601f19601f8201168201806040525081019061084b91906158c7565b505050505050565b6060805f8484905090508067ffffffffffffffff81111561087757610876614bc6565b5b6040519080825280602002602001820160405280156108a55781602001602082028036833780820191505090505b5092508067ffffffffffffffff8111156108c2576108c1614bc6565b5b6040519080825280602002602001820160405280156108f05781602001602082028036833780820191505090505b5091505f5b81811015610a45575f60675f8888858181106109145761091361583b565b5b9050602002013581526020019081526020015f206040518060400160405290815f82015f9054906101000a90046fffffffffffffffffffffffffffffffff166fffffffffffffffffffffffffffffffff166fffffffffffffffffffffffffffffffff1681526020015f820160109054906101000a90046fffffffffffffffffffffffffffffffff166fffffffffffffffffffffffffffffffff166fffffffffffffffffffffffffffffffff16815250509050805f01518160200151816fffffffffffffffffffffffffffffffff169150806fffffffffffffffffffffffffffffffff169050868481518110610a0c57610a0b61583b565b5b60200260200101868581518110610a2657610a2561583b565b5b60200260200101828152508281525050505080806001019150506108f5565b50509250929050565b610a66610a59611e8c565b610a61611e93565b611e9f565b610a6e611fe6565b565b60665f9054906101000a900473ffffffffffffffffffffffffffffffffffffffff1681565b5f610a9e6148e3565b829050610b007ff34603235044803a1065918322e607156b2ad4b7321677ede0e35900101dccf08285610120015180519060200120604051602001610ae593929190615a77565b60405160208183030381529060405280519060200120612054565b915050919050565b5f80610b1261206d565b9050805f015f9054906101000a900460ff1691505090565b5f602052805f5260405f205f915090505481565b5f8160ff165f803373ffffffffffffffffffffffffffffffffffffffff1673ffffffffffffffffffffffffffffffffffffffff1681526020019081526020015f2054610b8a9190615adb565b9050805f803373ffffffffffffffffffffffffffffffffffffffff1673ffffffffffffffffffffffffffffffffffffffff1681526020019081526020015f20819055503373ffffffffffffffffffffffffffffffffffffffff167fdc0537f71d06d3708f52baf4ddf6918b25f1a145ba08873de27485682b35cac18360ff1683610c149190615b0e565b83604051610c23929190615b41565b60405180910390a25050565b5f610c38611e8c565b9050610c42611746565b73ffffffffffffffffffffffffffffffffffffffff168173ffffffffffffffffffffffffffffffffffffffff1614610cb157806040517f068ca9d8000000000000000000000000000000000000000000000000000000008152600401610ca891906151e3565b60405180910390fd5b5f8273ffffffffffffffffffffffffffffffffffffffff163b03610d0c57816040517fc2f31e5e000000000000000000000000000000000000000000000000000000008152600401610d0391906151e3565b60405180910390fd5b610d1582612094565b5050565b3373ffffffffffffffffffffffffffffffffffffffff168160a0016020810190610d4391906152a7565b73ffffffffffffffffffffffffffffffffffffffff1614610d90576040517fb331e42100000000000000000000000000000000000000000000000000000000815260040160405180910390fd5b5f610da382610d9e90615b68565b610a95565b905060016fffffffffffffffffffffffffffffffff1660675f8381526020019081526020015f205f015f9054906101000a90046fffffffffffffffffffffffffffffffff166fffffffffffffffffffffffffffffffff1603610e3c57806040517fcee81443000000000000000000000000000000000000000000000000000000008152600401610e33919061525b565b60405180910390fd5b600160675f8381526020019081526020015f205f015f6101000a8154816fffffffffffffffffffffffffffffffff02191690836fffffffffffffffffffffffffffffffff1602179055507f35ab4a1a0e9bec7fd7ae164679b9cc00e6568e4db238d8055a75b1862f62ec2e3382604051610eb7929190615b7a565b60405180910390a15050565b610edb610ece611e8c565b610ed6611e93565b611e9f565b610ee361211b565b565b5f6060805f805f60605f610ef761218a565b90505f801b815f0154148015610f1257505f801b8160010154145b610f51576040517f08c379a0000000000000000000000000000000000000000000000000000000008152600401610f4890615beb565b60405180910390fd5b610f596121b1565b610f6161224f565b46305f801b5f67ffffffffffffffff811115610f8057610f7f614bc6565b5b604051908082528060200260200182016040528015610fae5781602001602082028036833780820191505090505b507f0f0000000000000000000000000000000000000000000000000000000000000095949392919097509750975097509750975097505090919293949596565b5f80610ff86122ed565b9050805f0160149054906101000a900460ff16611018575f60e01b611021565b638fb3603760e01b5b91505090565b5f5b8282905081101561106c5761106183838381811061104a5761104961583b565b5b905060200281019061105c9190615c0d565b610d19565b806001019050611029565b505050565b60605f805f60655f9054906101000a900473ffffffffffffffffffffffffffffffffffffffff1673ffffffffffffffffffffffffffffffffffffffff163373ffffffffffffffffffffffffffffffffffffffff16146110fc576040517f9165520100000000000000000000000000000000000000000000000000000000815260040160405180910390fd5b5f8087875f8181106111115761111061583b565b5b90506020028101906111239190615c35565b805f01906111319190615c0d565b60600160208101906111439190615c5c565b90508787905067ffffffffffffffff81111561116257611161614bc6565b5b60405190808252806020026020018201604052801561119b57816020015b61118861497a565b8152602001906001900390816111805790505b5095505f5b888890508110156116fe575f8989838181106111bf576111be61583b565b5b90506020028101906111d19190615c35565b805f01906111df9190615c0d565b6111e890615b68565b90506111f381612314565b611209578361120190615c87565b9350506116f3565b5f61121382610a95565b90505f806fffffffffffffffffffffffffffffffff1660675f8481526020019081526020015f205f015f9054906101000a90046fffffffffffffffffffffffffffffffff166fffffffffffffffffffffffffffffffff16141590505f8115611339575f60016fffffffffffffffffffffffffffffffff1660675f8681526020019081526020015f205f015f9054906101000a90046fffffffffffffffffffffffffffffffff166fffffffffffffffffffffffffffffffff1614905080156112ea57876112de90615c87565b975050505050506116f3565b60675f8581526020019081526020015f205f015f9054906101000a90046fffffffffffffffffffffffffffffffff166fffffffffffffffffffffffffffffffff16915060018203915050611397565b5f6113718e8e888181106113505761134f61583b565b5b90506020028101906113629190615c35565b61136b90615cce565b856123cf565b90508061138e578761138290615c87565b975050505050506116f3565b8460e001519150505b5f6113ca828f8f898181106113af576113ae61583b565b5b90506020028101906113c19190615c35565b60400135612417565b9050808203915060405180604001604052806113e86001850161242d565b6fffffffffffffffffffffffffffffffff16815260200161144b8360675f8981526020019081526020015f205f0160109054906101000a90046fffffffffffffffffffffffffffffffff166fffffffffffffffffffffffffffffffff160161242d565b6fffffffffffffffffffffffffffffffff1681525060675f8681526020019081526020015f205f820151815f015f6101000a8154816fffffffffffffffffffffffffffffffff02191690836fffffffffffffffffffffffffffffffff1602179055506020820151815f0160106101000a8154816fffffffffffffffffffffffffffffffff02191690836fffffffffffffffffffffffffffffffff1602179055509050506114f6614992565b6115008683612490565b825f0183602001828152508281525050508e8e888181106115245761152361583b565b5b90506020028101906115369190615c35565b606001358160200151825f015161154d9190615adb565b1115611585576040517fa28213a300000000000000000000000000000000000000000000000000000000815260040160405180910390fd5b8060200151815f01516115989190615adb565b8b6115a39190615adb565b9a5080602001518a6115b59190615adb565b99506040518060400160405280825f01518152602001838152508d88815181106115e2576115e161583b565b5b602002602001018190525061163c8f8f5f8181106116035761160261583b565b5b90506020028101906116159190615c35565b805f01906116239190615c0d565b608001602081019061163591906152a7565b8988612ab6565b611672576040517fffa07f1000000000000000000000000000000000000000000000000000000000815260040160405180910390fd5b5f73ffffffffffffffffffffffffffffffffffffffff168c73ffffffffffffffffffffffffffffffffffffffff16036116ec576116e98f8f898181106116bb576116ba61583b565b5b90506020028101906116cd9190615c35565b805f01906116db9190615c0d565b6116e490615b68565b612ca2565b9b505b5050505050505b8060010190506111a0565b5087879050820361173b576040517f9bc0260d00000000000000000000000000000000000000000000000000000000815260040160405180910390fd5b505092959194509250565b5f806117506122ed565b9050805f015f9054906101000a900473ffffffffffffffffffffffffffffffffffffffff1691505090565b5f611784612f0d565b90505f815f0160089054906101000a900460ff161590505f825f015f9054906101000a900467ffffffffffffffff1690505f808267ffffffffffffffff161480156117cc5750825b90505f60018367ffffffffffffffff161480156117ff57505f3073ffffffffffffffffffffffffffffffffffffffff163b145b90508115801561180d575080155b15611844576040517ff92ee8a900000000000000000000000000000000000000000000000000000000815260040160405180910390fd5b6001855f015f6101000a81548167ffffffffffffffff021916908367ffffffffffffffff1602179055508315611891576001855f0160086101000a81548160ff0219169083151502179055505b61189a86612f20565b61190e6040518060400160405280601c81526020017f53706563747261204c696d6974204f726465722050726f746f636f6c000000008152506040518060400160405280600181526020017f3100000000000000000000000000000000000000000000000000000000000000815250612f34565b8760665f6101000a81548173ffffffffffffffffffffffffffffffffffffffff021916908373ffffffffffffffffffffffffffffffffffffffff1602179055508660655f6101000a81548173ffffffffffffffffffffffffffffffffffffffff021916908373ffffffffffffffffffffffffffffffffffffffff16021790555083156119e8575f855f0160086101000a81548160ff0219169083151502179055507fc7f505b2f371ae2175ee4913f4499e1f2633a7b5936321eed1cdaeb6115181d260016040516119df9190615d35565b60405180910390a15b5050505050505050565b611a0a6119fd611e8c565b611a05611e93565b611e9f565b8060655f6101000a81548173ffffffffffffffffffffffffffffffffffffffff021916908373ffffffffffffffffffffffffffffffffffffffff1602179055508073ffffffffffffffffffffffffffffffffffffffff167f7aed1d3e8155a07ccf395e44ea3109a0e2d6c9b29bbbe9f142d9790596f4dc8060405160405180910390a250565b611a9a6001610b3e565b565b5f815f808573ffffffffffffffffffffffffffffffffffffffff1673ffffffffffffffffffffffffffffffffffffffff1681526020019081526020015f205414905092915050565b611afc611aef611e8c565b611af7611e93565b611e9f565b8060665f6101000a81548173ffffffffffffffffffffffffffffffffffffffff021916908373ffffffffffffffffffffffffffffffffffffffff1602179055508073ffffffffffffffffffffffffffffffffffffffff167f7a7b5a0a132f9e0581eb8527f66eae9ee89c2a3e79d4ac7e41a1f1f4d48a7fc260405160405180910390a250565b60655f9054906101000a900473ffffffffffffffffffffffffffffffffffffffff1681565b5f808260800151905060016004811115611bc457611bc3615940565b5b83606001516004811115611bdb57611bda615940565b5b03611c54578073ffffffffffffffffffffffffffffffffffffffff1663c644fe946040518163ffffffff1660e01b8152600401602060405180830381865afa158015611c29573d5f803e3d5ffd5b505050506040513d601f19601f82011682018060405250810190611c4d9190615d62565b9150611dd6565b60026004811115611c6857611c67615940565b5b83606001516004811115611c7f57611c7e615940565b5b03611c905782608001519150611dd5565b60036004811115611ca457611ca3615940565b5b83606001516004811115611cbb57611cba615940565b5b03611d34578073ffffffffffffffffffffffffffffffffffffffff1663c644fe946040518163ffffffff1660e01b8152600401602060405180830381865afa158015611d09573d5f803e3d5ffd5b505050506040513d601f19601f82011682018060405250810190611d2d9190615d62565b9150611dd4565b600480811115611d4757611d46615940565b5b83606001516004811115611d5e57611d5d615940565b5b03611dd3578073ffffffffffffffffffffffffffffffffffffffff166304aa50ad6040518163ffffffff1660e01b8152600401602060405180830381865afa158015611dac573d5f803e3d5ffd5b505050506040513d601f19601f82011682018060405250810190611dd09190615d62565b91505b5b5b5b50919050565b5f81510315611e88575f805f805f805f87806020019051810190611e009190615e1a565b96509650965096509650965096508873ffffffffffffffffffffffffffffffffffffffff1663d505accf888888888888886040518863ffffffff1660e01b8152600401611e539796959493929190615ec6565b5f604051808303815f87803b158015611e6a575f80fd5b505af1158015611e7c573d5f803e3d5ffd5b50505050505050505050505b5050565b5f33905090565b365f8036915091509091565b5f611ea86122ed565b90505f80611edc611eb7611746565b873088885f90600492611ecc93929190615f3b565b90611ed79190615f8b565b612f4a565b9150915081611fde575f8163ffffffff161115611fa0576001835f0160146101000a81548160ff021916908315150217905550611f17611746565b73ffffffffffffffffffffffffffffffffffffffff166394c7d7ee8787876040518463ffffffff1660e01b8152600401611f5393929190616025565b5f604051808303815f87803b158015611f6a575f80fd5b505af1158015611f7c573d5f803e3d5ffd5b505050505f835f0160146101000a81548160ff021916908315150217905550611fdd565b856040517f068ca9d8000000000000000000000000000000000000000000000000000000008152600401611fd491906151e3565b60405180910390fd5b5b505050505050565b611fee612fde565b5f611ff761206d565b90505f815f015f6101000a81548160ff0219169083151502179055507f5db9ee0a495bf2e6ff9c91a7834c1ba4fdd244a5e8aa4e537bd38aeae4b073aa61203c611e8c565b60405161204991906151e3565b60405180910390a150565b5f61206661206061301e565b8361302c565b9050919050565b5f7fcd5ed15c6e187e77e9aee88184c21f4f2182ab5827cb3b7e07fbedcd63f03300905090565b5f61209d6122ed565b905081815f015f6101000a81548173ffffffffffffffffffffffffffffffffffffffff021916908373ffffffffffffffffffffffffffffffffffffffff1602179055507f2f658b440c35314f52658ea8a740e05b284cdc84dc9ae01e891f21b8933e7cad8260405161210f91906151e3565b60405180910390a15050565b61212361306c565b5f61212c61206d565b90506001815f015f6101000a81548160ff0219169083151502179055507f62e78cea01bee320cd4e420270b5ea74000d11b0c9f74754ebdbfc544b05a258612172611e8c565b60405161217f91906151e3565b60405180910390a150565b5f7fa16a46d94261c7517cc8ff89f61c0ce93598e3c849801011dee649a6a557d100905090565b60605f6121bc61218a565b90508060020180546121cd90616082565b80601f01602080910402602001604051908101604052809291908181526020018280546121f990616082565b80156122445780601f1061221b57610100808354040283529160200191612244565b820191905f5260205f20905b81548152906001019060200180831161222757829003601f168201915b505050505091505090565b60605f61225a61218a565b905080600301805461226b90616082565b80601f016020809104026020016040519081016040528092919081815260200182805461229790616082565b80156122e25780601f106122b9576101008083540402835291602001916122e2565b820191905f5260205f20905b8154815290600101906020018083116122c557829003601f168201915b505050505091505090565b5f7ff3177357ab46d8af007ab3fdb9af81da189e1068fefdc0073dca88a2cab40a00905090565b5f42826020015111612328575f90506123ca565b42826080015173ffffffffffffffffffffffffffffffffffffffff1663204f83f96040518163ffffffff1660e01b8152600401602060405180830381865afa158015612376573d5f803e3d5ffd5b505050506040513d601f19601f8201168201806040525081019061239a91906160b2565b116123a7575f90506123ca565b6123b98260a001518360400151611a9c565b6123c5575f90506123ca565b600190505b919050565b5f80835f015160a0015190505f813b90505f81036123fd576123f6828587602001516130ad565b925061240f565b61240c82858760200151613159565b92505b505092915050565b5f6124258284108484613278565b905092915050565b5f6fffffffffffffffffffffffffffffffff8016821115612488576080826040517f6dfcc65000000000000000000000000000000000000000000000000000000000815260040161247f929190616116565b60405180910390fd5b819050919050565b5f805f846060015190505f6125a9601261259b886101000151428a6080015173ffffffffffffffffffffffffffffffffffffffff1663204f83f96040518163ffffffff1660e01b8152600401602060405180830381865afa1580156124f7573d5f803e3d5ffd5b505050506040513d601f19601f8201168201806040525081019061251b91906160b2565b6125259190615b0e565b8a6080015173ffffffffffffffffffffffffffffffffffffffff1663a1c5b3e16040518163ffffffff1660e01b8152600401602060405180830381865afa158015612572573d5f803e3d5ffd5b505050506040513d601f19601f8201168201806040525081019061259691906160b2565b613291565b61333590919063ffffffff16565b90505f6126306012886080015173ffffffffffffffffffffffffffffffffffffffff1663efd98dc26040518163ffffffff1660e01b8152600401602060405180830381865afa1580156125fe573d5f803e3d5ffd5b505050506040513d601f19601f8201168201806040525081019061262291906160b2565b61333590919063ffffffff16565b90505f61263c8861335e565b90505f90506001600481111561265557612654615940565b5b84600481111561266857612667615940565b5b036126f9575f826012600a61267d919061626c565b8561268891906162b6565b6126929190616324565b90506012600a6126a2919061626c565b81896126ae91906162b6565b6126b89190616324565b96505f82146126f357816012600a6126d0919061626c565b836126db9190615b0e565b896126e691906162b6565b6126f09190616324565b95505b50612aab565b6002600481111561270d5761270c615940565b5b8460048111156127205761271f615940565b5b036127be575f836012600a612735919061626c565b8461274091906162b6565b61274a9190616324565b90506012600a61275a919061626c565b818961276691906162b6565b6127709190616324565b96505f82146127b8576012600a612787919061626c565b6012600a612795919061626c565b836127a09190615b0e565b886127ab91906162b6565b6127b59190616324565b95505b50612aaa565b600360048111156127d2576127d1615940565b5b8460048111156127e5576127e4615940565b5b03612909575f8361287060128b6080015173ffffffffffffffffffffffffffffffffffffffff1663a1c5b3e16040518163ffffffff1660e01b8152600401602060405180830381865afa15801561283e573d5f803e3d5ffd5b505050506040513d601f19601f8201168201806040525081019061286291906160b2565b61333590919063ffffffff16565b61287a9190615b0e565b90505f836012600a61288c919061626c565b8361289791906162b6565b6128a19190616324565b90506012600a6128b1919061626c565b818a6128bd91906162b6565b6128c79190616324565b97505f831461290257816012600a6128df919061626c565b846128ea9190615b0e565b8a6128f591906162b6565b6128ff9190616324565b96505b5050612aa9565b60048081111561291c5761291b615940565b5b84600481111561292f5761292e615940565b5b03612a76575f836129ba60128b6080015173ffffffffffffffffffffffffffffffffffffffff1663a1c5b3e16040518163ffffffff1660e01b8152600401602060405180830381865afa158015612988573d5f803e3d5ffd5b505050506040513d601f19601f820116820180604052508101906129ac91906160b2565b61333590919063ffffffff16565b6129c49190615b0e565b90505f816012600a6129d6919061626c565b856129e191906162b6565b6129eb9190616324565b90506012600a6129fb919061626c565b818a612a0791906162b6565b612a119190616324565b97505f8314612a6f57816012600a612a29919061626c565b846012600a612a38919061626c565b86612a439190615b0e565b8b612a4e91906162b6565b612a589190616324565b612a6291906162b6565b612a6c9190616324565b96505b5050612aa8565b6040517f688c176f00000000000000000000000000000000000000000000000000000000815260040160405180910390fd5b5b5b5b505050509250929050565b5f8373ffffffffffffffffffffffffffffffffffffffff16826080015173ffffffffffffffffffffffffffffffffffffffff1614612af6575f9050612c9b565b60026004811115612b0a57612b09615940565b5b836004811115612b1d57612b1c615940565b5b1480612b4c5750600480811115612b3757612b36615940565b5b836004811115612b4a57612b49615940565b5b145b15612bc25760026004811115612b6557612b64615940565b5b82606001516004811115612b7c57612b7b615940565b5b1480612baf5750600480811115612b9657612b95615940565b5b82606001516004811115612bad57612bac615940565b5b145b15612bbd5760019050612c9b565b612c97565b60016004811115612bd657612bd5615940565b5b836004811115612be957612be8615940565b5b148015612c1e575060016004811115612c0557612c04615940565b5b82606001516004811115612c1c57612c1b615940565b5b145b15612c2c5760019050612c9b565b60036004811115612c4057612c3f615940565b5b836004811115612c5357612c52615940565b5b148015612c88575060036004811115612c6f57612c6e615940565b5b82606001516004811115612c8657612c85615940565b5b145b15612c965760019050612c9b565b5b5f90505b9392505050565b5f808260800151905060016004811115612cbf57612cbe615940565b5b83606001516004811115612cd657612cd5615940565b5b03612ce75782608001519150612f07565b60026004811115612cfb57612cfa615940565b5b83606001516004811115612d1257612d11615940565b5b03612d8b578073ffffffffffffffffffffffffffffffffffffffff1663c644fe946040518163ffffffff1660e01b8152600401602060405180830381865afa158015612d60573d5f803e3d5ffd5b505050506040513d601f19601f82011682018060405250810190612d849190615d62565b9150612f06565b60036004811115612d9f57612d9e615940565b5b83606001516004811115612db657612db5615940565b5b03612e2f578073ffffffffffffffffffffffffffffffffffffffff166304aa50ad6040518163ffffffff1660e01b8152600401602060405180830381865afa158015612e04573d5f803e3d5ffd5b505050506040513d601f19601f82011682018060405250810190612e289190615d62565b9150612f05565b600480811115612e4257612e41615940565b5b83606001516004811115612e5957612e58615940565b5b03612ed2578073ffffffffffffffffffffffffffffffffffffffff1663c644fe946040518163ffffffff1660e01b8152600401602060405180830381865afa158015612ea7573d5f803e3d5ffd5b505050506040513d601f19601f82011682018060405250810190612ecb9190615d62565b9150612f04565b6040517f688c176f00000000000000000000000000000000000000000000000000000000815260040160405180910390fd5b5b5b5b50919050565b5f80612f176134f3565b90508091505090565b612f2861351c565b612f318161355c565b50565b612f3c61351c565b612f468282613570565b5050565b5f805f858585604051602401612f6293929190616354565b60405160208183030381529060405263b700961360e01b6020820180517bffffffffffffffffffffffffffffffffffffffffffffffffffffffff838183161783525050505090505f80525f60205260405f8251602084018a5afa15612fd4575f51925060205191508160201c15820291505b5094509492505050565b612fe6610b08565b61301c576040517f8dfc202b00000000000000000000000000000000000000000000000000000000815260040160405180910390fd5b565b5f6130276135c1565b905090565b5f6040517f190100000000000000000000000000000000000000000000000000000000000081528360028201528260228201526042812091505092915050565b613074610b08565b156130ab576040517fd93c066500000000000000000000000000000000000000000000000000000000815260040160405180910390fd5b565b5f808473ffffffffffffffffffffffffffffffffffffffff163b03613144575f806130d88585613624565b50915091505f60038111156130f0576130ef615940565b5b81600381111561310357613102615940565b5b14801561313b57508573ffffffffffffffffffffffffffffffffffffffff168273ffffffffffffffffffffffffffffffffffffffff16145b92505050613152565b61314f848484613159565b90505b9392505050565b5f805f8573ffffffffffffffffffffffffffffffffffffffff1685856040516024016131869291906163cb565b604051602081830303815290604052631626ba7e60e01b6020820180517bffffffffffffffffffffffffffffffffffffffffffffffffffffffff83818316178352505050506040516131d89190616433565b5f60405180830381855afa9150503d805f8114613210576040519150601f19603f3d011682016040523d82523d5f602084013e613215565b606091505b509150915081801561322957506020815110155b801561326d5750631626ba7e60e01b7bffffffffffffffffffffffffffffffffffffffffffffffffffffffff19168180602001905181019061326b9190616449565b145b925050509392505050565b5f61328284613679565b82841802821890509392505050565b5f806301e133806012600a6132a6919061626c565b856132b191906162b6565b6132bb919061647d565b90505f6012600a6132cc919061626c565b90505f86826132db91906164e5565b90505f6132e782613684565b90505f6133098486846132fa9190616526565b613304919061647d565b613737565b90505f8185896133199190616526565b613323919061647d565b90508096505050505050509392505050565b5f8082601b6133449190615b0e565b600a613350919061626c565b905080840491505092915050565b5f8060655f9054906101000a900473ffffffffffffffffffffffffffffffffffffffff1673ffffffffffffffffffffffffffffffffffffffff16635ab1bd536040518163ffffffff1660e01b8152600401602060405180830381865afa1580156133ca573d5f803e3d5ffd5b505050506040513d601f19601f820116820180604052508101906133ee9190615d62565b90505f8173ffffffffffffffffffffffffffffffffffffffff166334b08c056040518163ffffffff1660e01b8152600401602060405180830381865afa15801561343a573d5f803e3d5ffd5b505050506040513d601f19601f8201168201806040525081019061345e91906160b2565b90505f42856080015173ffffffffffffffffffffffffffffffffffffffff1663204f83f96040518163ffffffff1660e01b8152600401602060405180830381865afa1580156134af573d5f803e3d5ffd5b505050506040513d601f19601f820116820180604052508101906134d391906160b2565b6134dd9190615b0e565b90506134e98282613d36565b9350505050919050565b5f7ff0c57e16840df040f15088dc2f81fe391c3923bec73e23a9662efc9c229c6a005f1b905090565b613524613f93565b61355a576040517fd7e6bcf800000000000000000000000000000000000000000000000000000000815260040160405180910390fd5b565b61356461351c565b61356d81612094565b50565b61357861351c565b5f61358161218a565b9050828160020190816135949190616724565b50818160030190816135a69190616724565b505f801b815f01819055505f801b8160010181905550505050565b5f7f8b73c3c69bb8fe3d512ecc4cf759cc79239f7b179b0ffacaa9a75d522b39400f6135eb613fb1565b6135f3614027565b46306040516020016136099594939291906167f3565b60405160208183030381529060405280519060200120905090565b5f805f6041845103613664575f805f602087015192506040870151915060608701515f1a90506136568882858561409e565b955095509550505050613672565b5f600285515f1b9250925092505b9250925092565b5f8115159050919050565b5f8082136136c7576040517f08c379a00000000000000000000000000000000000000000000000000000000081526004016136be9061688e565b60405180910390fd5b8167016345785d8a0000670de0b6b3a7640000031280156136f9575067016345785d8a0000670de0b6b3a76400000182125b1561372657670de0b6b3a764000061371083614185565b8161371e5761371d6162f7565b5b059050613732565b61372f8261439d565b90505b919050565b5f7ffffffffffffffffffffffffffffffffffffffffffffffffdc702bd3a30fc00008212158015613771575068070c1cc73b00c800008213155b6137b0576040517f08c379a00000000000000000000000000000000000000000000000000000000081526004016137a7906168f6565b60405180910390fd5b5f8212156137e4576137c3825f03613737565b670de0b6b3a76400008002816137dc576137db6162f7565b5b059050613d31565b5f6806f05b59d3b20000008312613823576806f05b59d3b200000083039250770195e54c5dd42177f53a27172fa9ec630262827000000000905061385b565b6803782dace9d90000008312613855576803782dace9d9000000830392506b1425982cf597cd205cef7380905061385a565b600190505b5b6064830292505f68056bc75e2d63100000905068ad78ebc5ac6200000084126138ba5768ad78ebc5ac620000008403935068056bc75e2d631000006e01855144814a7ff805980ff00840008202816138b6576138b56162f7565b5b0590505b6856bc75e2d6310000008412613903576856bc75e2d6310000008403935068056bc75e2d631000006b02df0ab5a80a22c61ab5a7008202816138ff576138fe6162f7565b5b0590505b682b5e3af16b18800000841261394a57682b5e3af16b188000008403935068056bc75e2d63100000693f1fce3da636ea5cf850820281613946576139456162f7565b5b0590505b6815af1d78b58c4000008412613991576815af1d78b58c4000008403935068056bc75e2d63100000690127fa27722cc06cc5e282028161398d5761398c6162f7565b5b0590505b680ad78ebc5ac620000084126139d757680ad78ebc5ac62000008403935068056bc75e2d6310000068280e60114edb805d038202816139d3576139d26162f7565b5b0590505b68056bc75e2d631000008412613a1d5768056bc75e2d631000008403935068056bc75e2d63100000680ebc5fb41746121110820281613a1957613a186162f7565b5b0590505b6802b5e3af16b18800008412613a63576802b5e3af16b18800008403935068056bc75e2d631000006808f00f760a4b2db55d820281613a5f57613a5e6162f7565b5b0590505b68015af1d78b58c400008412613aa95768015af1d78b58c400008403935068056bc75e2d631000006806f5f1775788937937820281613aa557613aa46162f7565b5b0590505b5f68056bc75e2d6310000090505f8590508082019150600268056bc75e2d6310000087830281613adc57613adb6162f7565b5b0581613aeb57613aea6162f7565b5b0590508082019150600368056bc75e2d6310000087830281613b1057613b0f6162f7565b5b0581613b1f57613b1e6162f7565b5b0590508082019150600468056bc75e2d6310000087830281613b4457613b436162f7565b5b0581613b5357613b526162f7565b5b0590508082019150600568056bc75e2d6310000087830281613b7857613b776162f7565b5b0581613b8757613b866162f7565b5b0590508082019150600668056bc75e2d6310000087830281613bac57613bab6162f7565b5b0581613bbb57613bba6162f7565b5b0590508082019150600768056bc75e2d6310000087830281613be057613bdf6162f7565b5b0581613bef57613bee6162f7565b5b0590508082019150600868056bc75e2d6310000087830281613c1457613c136162f7565b5b0581613c2357613c226162f7565b5b0590508082019150600968056bc75e2d6310000087830281613c4857613c476162f7565b5b0581613c5757613c566162f7565b5b0590508082019150600a68056bc75e2d6310000087830281613c7c57613c7b6162f7565b5b0581613c8b57613c8a6162f7565b5b0590508082019150600b68056bc75e2d6310000087830281613cb057613caf6162f7565b5b0581613cbf57613cbe6162f7565b5b0590508082019150600c68056bc75e2d6310000087830281613ce457613ce36162f7565b5b0581613cf357613cf26162f7565b5b059050808201915060648468056bc75e2d6310000084860281613d1957613d186162f7565b5b050281613d2957613d286162f7565b5b059450505050505b919050565b5f808203613d4e57670de0b6b3a76400009050613f8d565b5f8303613d5d575f9050613f8d565b7f80000000000000000000000000000000000000000000000000000000000000008310613dbf576040517f08c379a0000000000000000000000000000000000000000000000000000000008152600401613db69061695e565b60405180910390fd5b5f83905068056bc75e2d631000007f400000000000000000000000000000000000000000000000000000000000000081613dfc57613dfb6162f7565b5b048310613e3e576040517f08c379a0000000000000000000000000000000000000000000000000000000008152600401613e35906169c6565b60405180910390fd5b5f8390505f8267016345785d8a0000670de0b6b3a764000003128015613e75575067016345785d8a0000670de0b6b3a76400000183125b15613edd575f613e8484614185565b9050670de0b6b3a764000083670de0b6b3a76400008381613ea857613ea76162f7565b5b070281613eb857613eb76162f7565b5b0583670de0b6b3a76400008381613ed257613ed16162f7565b5b050201915050613eeb565b81613ee78461439d565b0290505b670de0b6b3a76400008181613f0357613f026162f7565b5b059050807ffffffffffffffffffffffffffffffffffffffffffffffffdc702bd3a30fc000013158015613f3f575068070c1cc73b00c800008113155b613f7e576040517f08c379a0000000000000000000000000000000000000000000000000000000008152600401613f7590616a2e565b60405180910390fd5b613f8781613737565b93505050505b92915050565b5f613f9c612f0d565b5f0160089054906101000a900460ff16905090565b5f80613fbb61218a565b90505f613fc66121b1565b90505f81511115613fe257808051906020012092505050614024565b5f825f015490505f801b8114613ffd57809350505050614024565b7fc5d2460186f7233c927e7db2dcc703c0e500b653ca82273b7bfad8045d85a47093505050505b90565b5f8061403161218a565b90505f61403c61224f565b90505f815111156140585780805190602001209250505061409b565b5f826001015490505f801b81146140745780935050505061409b565b7fc5d2460186f7233c927e7db2dcc703c0e500b653ca82273b7bfad8045d85a47093505050505b90565b5f805f7f7fffffffffffffffffffffffffffffff5d576e7357a4501ddfe92f46681b20a0845f1c11156140da575f60038592509250925061417b565b5f6001888888886040515f81526020016040526040516140fd9493929190616a4c565b6020604051602081039080840390855afa15801561411d573d5f803e3d5ffd5b5050506020604051035190505f73ffffffffffffffffffffffffffffffffffffffff168173ffffffffffffffffffffffffffffffffffffffff160361416e575f60015f801b9350935093505061417b565b805f805f1b935093509350505b9450945094915050565b5f670de0b6b3a7640000820291505f6ec097ce7bc90715b34b9f100000000083016ec097ce7bc90715b34b9f100000000080850302816141c8576141c76162f7565b5b0590505f6ec097ce7bc90715b34b9f1000000000828302816141ed576141ec6162f7565b5b0590505f8290505f8190506ec097ce7bc90715b34b9f100000000083830281614219576142186162f7565b5b0591506003828161422d5761422c6162f7565b5b05810190506ec097ce7bc90715b34b9f100000000083830281614253576142526162f7565b5b05915060058281614267576142666162f7565b5b05810190506ec097ce7bc90715b34b9f10000000008383028161428d5761428c6162f7565b5b059150600782816142a1576142a06162f7565b5b05810190506ec097ce7bc90715b34b9f1000000000838302816142c7576142c66162f7565b5b059150600982816142db576142da6162f7565b5b05810190506ec097ce7bc90715b34b9f100000000083830281614301576143006162f7565b5b059150600b8281614315576143146162f7565b5b05810190506ec097ce7bc90715b34b9f10000000008383028161433b5761433a6162f7565b5b059150600d828161434f5761434e6162f7565b5b05810190506ec097ce7bc90715b34b9f100000000083830281614375576143746162f7565b5b059150600f8281614389576143886162f7565b5b058101905060028102945050505050919050565b5f670de0b6b3a76400008212156143da576143d182670de0b6b3a76400008002816143cb576143ca6162f7565b5b0561439d565b5f0390506148de565b5f670de0b6b3a7640000770195e54c5dd42177f53a27172fa9ec63026282700000000002831261443e57770195e54c5dd42177f53a27172fa9ec630262827000000000838161442c5761442b6162f7565b5b0592506806f05b59d3b2000000810190505b670de0b6b3a76400006b1425982cf597cd205cef7380028312614489576b1425982cf597cd205cef73808381614477576144766162f7565b5b0592506803782dace9d9000000810190505b6064810290506064830292506e01855144814a7ff805980ff008400083126144e7576e01855144814a7ff805980ff008400068056bc75e2d631000008402816144d5576144d46162f7565b5b05925068ad78ebc5ac62000000810190505b6b02df0ab5a80a22c61ab5a7008312614533576b02df0ab5a80a22c61ab5a70068056bc75e2d63100000840281614521576145206162f7565b5b0592506856bc75e2d631000000810190505b693f1fce3da636ea5cf850831261457b57693f1fce3da636ea5cf85068056bc75e2d63100000840281614569576145686162f7565b5b059250682b5e3af16b18800000810190505b690127fa27722cc06cc5e283126145c357690127fa27722cc06cc5e268056bc75e2d631000008402816145b1576145b06162f7565b5b0592506815af1d78b58c400000810190505b68280e60114edb805d0383126146095768280e60114edb805d0368056bc75e2d631000008402816145f7576145f66162f7565b5b059250680ad78ebc5ac6200000810190505b680ebc5fb41746121110831261464f57680ebc5fb4174612111068056bc75e2d6310000084028161463d5761463c6162f7565b5b05925068056bc75e2d63100000810190505b6808f00f760a4b2db55d8312614695576808f00f760a4b2db55d68056bc75e2d63100000840281614683576146826162f7565b5b0592506802b5e3af16b1880000810190505b6806f5f177578893793783126146db576806f5f177578893793768056bc75e2d631000008402816146c9576146c86162f7565b5b05925068015af1d78b58c40000810190505b6806248f33704b2866038312614720576806248f33704b28660368056bc75e2d6310000084028161470f5761470e6162f7565b5b05925067ad78ebc5ac620000810190505b6805c548670b9510e7ac8312614765576805c548670b9510e7ac68056bc75e2d63100000840281614754576147536162f7565b5b0592506756bc75e2d6310000810190505b5f68056bc75e2d63100000840168056bc75e2d63100000808603028161478e5761478d6162f7565b5b0590505f68056bc75e2d63100000828302816147ad576147ac6162f7565b5b0590505f8290505f81905068056bc75e2d63100000838302816147d3576147d26162f7565b5b059150600382816147e7576147e66162f7565b5b058101905068056bc75e2d6310000083830281614807576148066162f7565b5b0591506005828161481b5761481a6162f7565b5b058101905068056bc75e2d631000008383028161483b5761483a6162f7565b5b0591506007828161484f5761484e6162f7565b5b058101905068056bc75e2d631000008383028161486f5761486e6162f7565b5b05915060098281614883576148826162f7565b5b058101905068056bc75e2d63100000838302816148a3576148a26162f7565b5b059150600b82816148b7576148b66162f7565b5b05810190506002810290506064818601816148d5576148d46162f7565b5b05955050505050505b919050565b6040518061012001604052805f81526020015f81526020015f81526020015f600481111561491457614913615940565b5b81526020015f73ffffffffffffffffffffffffffffffffffffffff1681526020015f73ffffffffffffffffffffffffffffffffffffffff1681526020015f73ffffffffffffffffffffffffffffffffffffffff1681526020015f81526020015f81525090565b60405180604001604052805f81526020015f81525090565b60405180604001604052805f81526020015f81525090565b5f604051905090565b5f80fd5b5f80fd5b5f80fd5b5f80fd5b5f80fd5b5f8083601f8401126149dc576149db6149bb565b5b8235905067ffffffffffffffff8111156149f9576149f86149bf565b5b602083019150836020820283011115614a1557614a146149c3565b5b9250929050565b5f8060208385031215614a3257614a316149b3565b5b5f83013567ffffffffffffffff811115614a4f57614a4e6149b7565b5b614a5b858286016149c7565b92509250509250929050565b5f81519050919050565b5f82825260208201905092915050565b5f819050602082019050919050565b5f819050919050565b614aa281614a90565b82525050565b5f614ab38383614a99565b60208301905092915050565b5f602082019050919050565b5f614ad582614a67565b614adf8185614a71565b9350614aea83614a81565b805f5b83811015614b1a578151614b018882614aa8565b9750614b0c83614abf565b925050600181019050614aed565b5085935050505092915050565b5f6040820190508181035f830152614b3f8185614acb565b90508181036020830152614b538184614acb565b90509392505050565b5f73ffffffffffffffffffffffffffffffffffffffff82169050919050565b5f614b8582614b5c565b9050919050565b614b9581614b7b565b8114614b9f575f80fd5b50565b5f81359050614bb081614b8c565b92915050565b5f601f19601f8301169050919050565b7f4e487b71000000000000000000000000000000000000000000000000000000005f52604160045260245ffd5b614bfc82614bb6565b810181811067ffffffffffffffff82111715614c1b57614c1a614bc6565b5b80604052505050565b5f614c2d6149aa565b9050614c398282614bf3565b919050565b5f67ffffffffffffffff821115614c5857614c57614bc6565b5b602082029050602081019050919050565b5f80fd5b5f80fd5b614c7a81614a90565b8114614c84575f80fd5b50565b5f81359050614c9581614c71565b92915050565b60058110614ca7575f80fd5b50565b5f81359050614cb881614c9b565b92915050565b5f80fd5b5f67ffffffffffffffff821115614cdc57614cdb614bc6565b5b614ce582614bb6565b9050602081019050919050565b828183375f83830152505050565b5f614d12614d0d84614cc2565b614c24565b905082815260208101848484011115614d2e57614d2d614cbe565b5b614d39848285614cf2565b509392505050565b5f82601f830112614d5557614d546149bb565b5b8135614d65848260208601614d00565b91505092915050565b5f6101408284031215614d8457614d83614c69565b5b614d8f610140614c24565b90505f614d9e84828501614c87565b5f830152506020614db184828501614c87565b6020830152506040614dc584828501614c87565b6040830152506060614dd984828501614caa565b6060830152506080614ded84828501614ba2565b60808301525060a0614e0184828501614ba2565b60a08301525060c0614e1584828501614ba2565b60c08301525060e0614e2984828501614c87565b60e083015250610100614e3e84828501614c87565b6101008301525061012082013567ffffffffffffffff811115614e6457614e63614c6d565b5b614e7084828501614d41565b6101208301525092915050565b5f60808284031215614e9257614e91614c69565b5b614e9c6080614c24565b90505f82013567ffffffffffffffff811115614ebb57614eba614c6d565b5b614ec784828501614d6e565b5f83015250602082013567ffffffffffffffff811115614eea57614ee9614c6d565b5b614ef684828501614d41565b6020830152506040614f0a84828501614c87565b6040830152506060614f1e84828501614c87565b60608301525092915050565b5f614f3c614f3784614c3e565b614c24565b90508083825260208201905060208402830185811115614f5f57614f5e6149c3565b5b835b81811015614fa657803567ffffffffffffffff811115614f8457614f836149bb565b5b808601614f918982614e7d565b85526020850194505050602081019050614f61565b5050509392505050565b5f82601f830112614fc457614fc36149bb565b5b8135614fd4848260208601614f2a565b91505092915050565b5f67ffffffffffffffff821115614ff757614ff6614bc6565b5b602082029050602081019050919050565b5f6040828403121561501d5761501c614c69565b5b6150276040614c24565b90505f61503684828501614c87565b5f83015250602061504984828501614c87565b60208301525092915050565b5f61506761506284614fdd565b614c24565b9050808382526020820190506040840283018581111561508a576150896149c3565b5b835b818110156150b3578061509f8882615008565b84526020840193505060408101905061508c565b5050509392505050565b5f82601f8301126150d1576150d06149bb565b5b81356150e1848260208601615055565b91505092915050565b5f6150f482614b7b565b9050919050565b615104816150ea565b811461510e575f80fd5b50565b5f8135905061511f816150fb565b92915050565b5f805f805f60a0868803121561513e5761513d6149b3565b5b5f61514b88828901614ba2565b955050602086013567ffffffffffffffff81111561516c5761516b6149b7565b5b61517888828901614fb0565b945050604086013567ffffffffffffffff811115615199576151986149b7565b5b6151a5888289016150bd565b93505060606151b688828901615111565b92505060806151c788828901614c87565b9150509295509295909350565b6151dd81614b7b565b82525050565b5f6020820190506151f65f8301846151d4565b92915050565b5f60208284031215615211576152106149b3565b5b5f82013567ffffffffffffffff81111561522e5761522d6149b7565b5b61523a84828501614d6e565b91505092915050565b5f819050919050565b61525581615243565b82525050565b5f60208201905061526e5f83018461524c565b92915050565b5f8115159050919050565b61528881615274565b82525050565b5f6020820190506152a15f83018461527f565b92915050565b5f602082840312156152bc576152bb6149b3565b5b5f6152c984828501614ba2565b91505092915050565b6152db81614a90565b82525050565b5f6020820190506152f45f8301846152d2565b92915050565b5f60ff82169050919050565b61530f816152fa565b8114615319575f80fd5b50565b5f8135905061532a81615306565b92915050565b5f60208284031215615345576153446149b3565b5b5f6153528482850161531c565b91505092915050565b5f80fd5b5f61014082840312156153755761537461535b565b5b81905092915050565b5f60208284031215615393576153926149b3565b5b5f82013567ffffffffffffffff8111156153b0576153af6149b7565b5b6153bc8482850161535f565b91505092915050565b5f7fff0000000000000000000000000000000000000000000000000000000000000082169050919050565b6153f9816153c5565b82525050565b5f81519050919050565b5f82825260208201905092915050565b5f5b8381101561543657808201518184015260208101905061541b565b5f8484015250505050565b5f61544b826153ff565b6154558185615409565b9350615465818560208601615419565b61546e81614bb6565b840191505092915050565b5f60e08201905061548c5f83018a6153f0565b818103602083015261549e8189615441565b905081810360408301526154b28188615441565b90506154c160608301876152d2565b6154ce60808301866151d4565b6154db60a083018561524c565b81810360c08301526154ed8184614acb565b905098975050505050505050565b5f7fffffffff0000000000000000000000000000000000000000000000000000000082169050919050565b61552f816154fb565b82525050565b5f6020820190506155485f830184615526565b92915050565b5f8083601f840112615563576155626149bb565b5b8235905067ffffffffffffffff8111156155805761557f6149bf565b5b60208301915083602082028301111561559c5761559b6149c3565b5b9250929050565b5f80602083850312156155b9576155b86149b3565b5b5f83013567ffffffffffffffff8111156155d6576155d56149b7565b5b6155e28582860161554e565b92509250509250929050565b5f8083601f840112615603576156026149bb565b5b8235905067ffffffffffffffff8111156156205761561f6149bf565b5b60208301915083602082028301111561563c5761563b6149c3565b5b9250929050565b5f8060208385031215615659576156586149b3565b5b5f83013567ffffffffffffffff811115615676576156756149b7565b5b615682858286016155ee565b92509250509250929050565b5f81519050919050565b5f82825260208201905092915050565b5f819050602082019050919050565b604082015f8201516156cb5f850182614a99565b5060208201516156de6020850182614a99565b50505050565b5f6156ef83836156b7565b60408301905092915050565b5f602082019050919050565b5f6157118261568e565b61571b8185615698565b9350615726836156a8565b805f5b8381101561575657815161573d88826156e4565b9750615748836156fb565b925050600181019050615729565b5085935050505092915050565b5f6080820190508181035f83015261577b8187615707565b905061578a60208301866151d4565b61579760408301856152d2565b6157a460608301846152d2565b95945050505050565b5f805f606084860312156157c4576157c36149b3565b5b5f6157d186828701614ba2565b93505060206157e286828701614ba2565b92505060406157f386828701614ba2565b9150509250925092565b5f8060408385031215615813576158126149b3565b5b5f61582085828601614ba2565b925050602061583185828601614c87565b9150509250929050565b7f4e487b71000000000000000000000000000000000000000000000000000000005f52603260045260245ffd5b5f60608201905061587b5f8301866151d4565b61588860208301856151d4565b61589560408301846152d2565b949350505050565b6158a681615274565b81146158b0575f80fd5b50565b5f815190506158c18161589d565b92915050565b5f602082840312156158dc576158db6149b3565b5b5f6158e9848285016158b3565b91505092915050565b5f6040820190506159055f8301856151d4565b61591260208301846152d2565b9392505050565b5f60408201905061592c5f83018561524c565b61593960208301846152d2565b9392505050565b7f4e487b71000000000000000000000000000000000000000000000000000000005f52602160045260245ffd5b6005811061597e5761597d615940565b5b50565b5f81905061598e8261596d565b919050565b5f61599d82615981565b9050919050565b6159ad81615993565b82525050565b6159bc81614b7b565b82525050565b61012082015f8201516159d75f850182614a99565b5060208201516159ea6020850182614a99565b5060408201516159fd6040850182614a99565b506060820151615a1060608501826159a4565b506080820151615a2360808501826159b3565b5060a0820151615a3660a08501826159b3565b5060c0820151615a4960c08501826159b3565b5060e0820151615a5c60e0850182614a99565b50610100820151615a71610100850182614a99565b50505050565b5f61016082019050615a8b5f83018661524c565b615a9860208301856159c2565b615aa661014083018461524c565b949350505050565b7f4e487b71000000000000000000000000000000000000000000000000000000005f52601160045260245ffd5b5f615ae582614a90565b9150615af083614a90565b9250828201905080821115615b0857615b07615aae565b5b92915050565b5f615b1882614a90565b9150615b2383614a90565b9250828203905081811115615b3b57615b3a615aae565b5b92915050565b5f604082019050615b545f8301856152d2565b615b6160208301846152d2565b9392505050565b5f615b733683614d6e565b9050919050565b5f604082019050615b8d5f8301856151d4565b615b9a602083018461524c565b9392505050565b7f4549503731323a20556e696e697469616c697a656400000000000000000000005f82015250565b5f615bd5601583615409565b9150615be082615ba1565b602082019050919050565b5f6020820190508181035f830152615c0281615bc9565b9050919050565b5f80fd5b5f8235600161014003833603038112615c2957615c28615c09565b5b80830191505092915050565b5f82356001608003833603038112615c5057615c4f615c09565b5b80830191505092915050565b5f60208284031215615c7157615c706149b3565b5b5f615c7e84828501614caa565b91505092915050565b5f615c9182614a90565b91507fffffffffffffffffffffffffffffffffffffffffffffffffffffffffffffffff8203615cc357615cc2615aae565b5b600182019050919050565b5f615cd93683614e7d565b9050919050565b5f819050919050565b5f67ffffffffffffffff82169050919050565b5f819050919050565b5f615d1f615d1a615d1584615ce0565b615cfc565b615ce9565b9050919050565b615d2f81615d05565b82525050565b5f602082019050615d485f830184615d26565b92915050565b5f81519050615d5c81614b8c565b92915050565b5f60208284031215615d7757615d766149b3565b5b5f615d8484828501615d4e565b91505092915050565b5f615d9782614b5c565b9050919050565b615da781615d8d565b8114615db1575f80fd5b50565b5f81519050615dc281615d9e565b92915050565b5f81519050615dd681614c71565b92915050565b5f81519050615dea81615306565b92915050565b615df981615243565b8114615e03575f80fd5b50565b5f81519050615e1481615df0565b92915050565b5f805f805f805f60e0888a031215615e3557615e346149b3565b5b5f615e428a828b01615db4565b9750506020615e538a828b01615db4565b9650506040615e648a828b01615dc8565b9550506060615e758a828b01615dc8565b9450506080615e868a828b01615ddc565b93505060a0615e978a828b01615e06565b92505060c0615ea88a828b01615e06565b91505092959891949750929550565b615ec0816152fa565b82525050565b5f60e082019050615ed95f83018a6151d4565b615ee660208301896151d4565b615ef360408301886152d2565b615f0060608301876152d2565b615f0d6080830186615eb7565b615f1a60a083018561524c565b615f2760c083018461524c565b98975050505050505050565b5f80fd5b5f80fd5b5f8085851115615f4e57615f4d615f33565b5b83861115615f5f57615f5e615f37565b5b6001850283019150848603905094509492505050565b5f82905092915050565b5f82821b905092915050565b5f615f968383615f75565b82615fa181356154fb565b92506004821015615fe157615fdc7fffffffff0000000000000000000000000000000000000000000000000000000083600403600802615f7f565b831692505b505092915050565b5f82825260208201905092915050565b5f6160048385615fe9565b9350616011838584614cf2565b61601a83614bb6565b840190509392505050565b5f6040820190506160385f8301866151d4565b818103602083015261604b818486615ff9565b9050949350505050565b7f4e487b71000000000000000000000000000000000000000000000000000000005f52602260045260245ffd5b5f600282049050600182168061609957607f821691505b6020821081036160ac576160ab616055565b5b50919050565b5f602082840312156160c7576160c66149b3565b5b5f6160d484828501615dc8565b91505092915050565b5f819050919050565b5f6161006160fb6160f6846160dd565b615cfc565b6152fa565b9050919050565b616110816160e6565b82525050565b5f6040820190506161295f830185616107565b61613660208301846152d2565b9392505050565b5f8160011c9050919050565b5f808291508390505b60018511156161925780860481111561616e5761616d615aae565b5b600185161561617d5780820291505b808102905061618b8561613d565b9450616152565b94509492505050565b5f826161aa5760019050616265565b816161b7575f9050616265565b81600181146161cd57600281146161d757616206565b6001915050616265565b60ff8411156161e9576161e8615aae565b5b8360020a915084821115616200576161ff615aae565b5b50616265565b5060208310610133831016604e8410600b841016171561623b5782820a90508381111561623657616235615aae565b5b616265565b6162488484846001616149565b9250905081840481111561625f5761625e615aae565b5b81810290505b9392505050565b5f61627682614a90565b915061628183614a90565b92506162ae7fffffffffffffffffffffffffffffffffffffffffffffffffffffffffffffffff848461619b565b905092915050565b5f6162c082614a90565b91506162cb83614a90565b92508282026162d981614a90565b915082820484148315176162f0576162ef615aae565b5b5092915050565b7f4e487b71000000000000000000000000000000000000000000000000000000005f52601260045260245ffd5b5f61632e82614a90565b915061633983614a90565b925082616349576163486162f7565b5b828204905092915050565b5f6060820190506163675f8301866151d4565b61637460208301856151d4565b6163816040830184615526565b949350505050565b5f81519050919050565b5f61639d82616389565b6163a78185615fe9565b93506163b7818560208601615419565b6163c081614bb6565b840191505092915050565b5f6040820190506163de5f83018561524c565b81810360208301526163f08184616393565b90509392505050565b5f81905092915050565b5f61640d82616389565b61641781856163f9565b9350616427818560208601615419565b80840191505092915050565b5f61643e8284616403565b915081905092915050565b5f6020828403121561645e5761645d6149b3565b5b5f61646b84828501615e06565b91505092915050565b5f819050919050565b5f61648782616474565b915061649283616474565b9250826164a2576164a16162f7565b5b60015f0383147f8000000000000000000000000000000000000000000000000000000000000000831416156164da576164d9615aae565b5b828205905092915050565b5f6164ef82616474565b91506164fa83616474565b92508282019050828112155f8312168382125f8412151617156165205761651f615aae565b5b92915050565b5f61653082616474565b915061653b83616474565b925082820261654981616474565b91507f800000000000000000000000000000000000000000000000000000000000000084145f841216156165805761657f615aae565b5b828205841483151761659557616594615aae565b5b5092915050565b5f819050815f5260205f209050919050565b5f6020601f8301049050919050565b5f600883026165ec7fffffffffffffffffffffffffffffffffffffffffffffffffffffffffffffffff82615f7f565b6165f68683615f7f565b95508019841693508086168417925050509392505050565b5f61662861662361661e84614a90565b615cfc565b614a90565b9050919050565b5f819050919050565b6166418361660e565b61665561664d8261662f565b8484546165bd565b825550505050565b5f90565b61666961665d565b616674818484616638565b505050565b5b818110156166975761668c5f82616661565b60018101905061667a565b5050565b601f8211156166dc576166ad8161659c565b6166b6846165ae565b810160208510156166c5578190505b6166d96166d1856165ae565b830182616679565b50505b505050565b5f82821c905092915050565b5f6166fc5f19846008026166e1565b1980831691505092915050565b5f61671483836166ed565b9150826002028217905092915050565b61672d826153ff565b67ffffffffffffffff81111561674657616745614bc6565b5b6167508254616082565b61675b82828561669b565b5f60209050601f83116001811461678c575f841561677a578287015190505b6167848582616709565b8655506167eb565b601f19841661679a8661659c565b5f5b828110156167c15784890151825560018201915060208501945060208101905061679c565b868310156167de57848901516167da601f8916826166ed565b8355505b6001600288020188555050505b505050505050565b5f60a0820190506168065f83018861524c565b616813602083018761524c565b616820604083018661524c565b61682d60608301856152d2565b61683a60808301846151d4565b9695505050505050565b7f6f7574206f6620626f756e6473000000000000000000000000000000000000005f82015250565b5f616878600d83615409565b915061688382616844565b602082019050919050565b5f6020820190508181035f8301526168a58161686c565b9050919050565b7f496e76616c6964206578706f6e656e74000000000000000000000000000000005f82015250565b5f6168e0601083615409565b91506168eb826168ac565b602082019050919050565b5f6020820190508181035f83015261690d816168d4565b9050919050565b7f78206f7574206f6620626f756e647300000000000000000000000000000000005f82015250565b5f616948600f83615409565b915061695382616914565b602082019050919050565b5f6020820190508181035f8301526169758161693c565b9050919050565b7f79206f7574206f6620626f756e647300000000000000000000000000000000005f82015250565b5f6169b0600f83615409565b91506169bb8261697c565b602082019050919050565b5f6020820190508181035f8301526169dd816169a4565b9050919050565b7f70726f64756374206f7574206f6620626f756e647300000000000000000000005f82015250565b5f616a18601583615409565b9150616a23826169e4565b602082019050919050565b5f6020820190508181035f830152616a4581616a0c565b9050919050565b5f608082019050616a5f5f83018761524c565b616a6c6020830186615eb7565b616a79604083018561524c565b616a86606083018461524c565b9594505050505056fea2646970667358221220f015e1bff79b818a06cae08a4757548a7c3d4b969235a1163efb8715e6be426964736f6c63430008180033",
      "linkReferences": {}
   },
   "methodIdentifiers": {
      "advanceNonce(uint8)": "72c244a8",
      "authority()": "bf7e214f",
      "cancelBatch((uint256,uint256,uint256,uint8,address,address,address,uint256,uint256,bytes)[])": "ada08449",
      "cancelSingle((uint256,uint256,uint256,uint8,address,address,address,uint256,uint256,bytes))": "7db458e5",
      "eip712Domain()": "84b0196e",
      "feeRecipient()": "46904840",
      "hashOrder((uint256,uint256,uint256,uint8,address,address,address,uint256,uint256,bytes))": "5bd5f77d",
      "increaseNonce()": "c53a0292",
      "initialize(address,address,address)": "c0c53b8b",
      "isConsumingScheduledOp()": "8fb36037",
      "nonce(address)": "70ae92d2",
      "nonceEquals(address,uint256)": "cf6fc6e3",
      "orderStatuses(bytes32[])": "0c0b8c9c",
      "orderStatusesRaw(bytes32[])": "35ee3ffc",
      "pause()": "8456cb59",
      "paused()": "5c975abb",
      "router()": "f887ea40",
      "setAuthority(address)": "7a9e5e4b",
      "setFeeRecipient(address)": "e74b981b",
      "setRouter(address)": "c0d78655",
      "transferPostValidation(address,((uint256,uint256,uint256,uint8,address,address,address,uint256,uint256,bytes),bytes,uint256,uint256)[],(uint256,uint256)[],address,uint256)": "19f752f6",
      "unpause()": "3f4ba83a",
      "validateOrdersAndUpdateStatus(((uint256,uint256,uint256,uint8,address,address,address,uint256,uint256,bytes),bytes,uint256,uint256)[])": "bd8f1178"
   },
   "id": 131
}