{
   "abi": [
      {
         "type": "function",
         "name": "advanceNonce",
         "inputs": [
            {
               "name": "amount",
               "type": "uint8",
               "internalType": "uint8"
            }
         ],
         "outputs": [],
         "stateMutability": "nonpayable"
      },
      {
         "type": "function",
         "name": "increaseNonce",
         "inputs": [],
         "outputs": [],
         "stateMutability": "nonpayable"
      },
      {
         "type": "function",
         "name": "nonce",
         "inputs": [
            {
               "name": "",
               "type": "address",
               "internalType": "address"
            }
         ],
         "outputs": [
            {
               "name": "",
               "type": "uint256",
               "internalType": "uint256"
            }
         ],
         "stateMutability": "view"
      },
      {
         "type": "function",
         "name": "nonceEquals",
         "inputs": [
            {
               "name": "makerAddress",
               "type": "address",
               "internalType": "address"
            },
            {
               "name": "makerNonce",
               "type": "uint256",
               "internalType": "uint256"
            }
         ],
         "outputs": [
            {
               "name": "",
               "type": "bool",
               "internalType": "bool"
            }
         ],
         "stateMutability": "view"
      },
      {
         "type": "event",
         "name": "NonceIncreased",
         "inputs": [
            {
               "name": "maker",
               "type": "address",
               "indexed": true,
               "internalType": "address"
            },
            {
               "name": "oldNonce",
               "type": "uint256",
               "indexed": false,
               "internalType": "uint256"
            },
            {
               "name": "newNonce",
               "type": "uint256",
               "indexed": false,
               "internalType": "uint256"
            }
         ],
         "anonymous": false
      }
   ],
   "bytecode": {
      "object": "0x608060405234801561000f575f80fd5b506104d38061001d5f395ff3fe608060405234801561000f575f80fd5b506004361061004a575f3560e01c806370ae92d21461004e57806372c244a81461007e578063c53a02921461009a578063cf6fc6e3146100a4575b5f80fd5b6100686004803603810190610063919061028b565b6100d4565b60405161007591906102ce565b60405180910390f35b6100986004803603810190610093919061031d565b6100e8565b005b6100a26101d9565b005b6100be60048036038101906100b99190610372565b6101e5565b6040516100cb91906103ca565b60405180910390f35b5f602052805f5260405f205f915090505481565b5f8160ff165f803373ffffffffffffffffffffffffffffffffffffffff1673ffffffffffffffffffffffffffffffffffffffff1681526020019081526020015f20546101349190610410565b9050805f803373ffffffffffffffffffffffffffffffffffffffff1673ffffffffffffffffffffffffffffffffffffffff1681526020019081526020015f20819055503373ffffffffffffffffffffffffffffffffffffffff167fdc0537f71d06d3708f52baf4ddf6918b25f1a145ba08873de27485682b35cac18360ff16836101be9190610443565b836040516101cd929190610476565b60405180910390a25050565b6101e360016100e8565b565b5f815f808573ffffffffffffffffffffffffffffffffffffffff1673ffffffffffffffffffffffffffffffffffffffff1681526020019081526020015f205414905092915050565b5f80fd5b5f73ffffffffffffffffffffffffffffffffffffffff82169050919050565b5f61025a82610231565b9050919050565b61026a81610250565b8114610274575f80fd5b50565b5f8135905061028581610261565b92915050565b5f602082840312156102a05761029f61022d565b5b5f6102ad84828501610277565b91505092915050565b5f819050919050565b6102c8816102b6565b82525050565b5f6020820190506102e15f8301846102bf565b92915050565b5f60ff82169050919050565b6102fc816102e7565b8114610306575f80fd5b50565b5f81359050610317816102f3565b92915050565b5f602082840312156103325761033161022d565b5b5f61033f84828501610309565b91505092915050565b610351816102b6565b811461035b575f80fd5b50565b5f8135905061036c81610348565b92915050565b5f80604083850312156103885761038761022d565b5b5f61039585828601610277565b92505060206103a68582860161035e565b9150509250929050565b5f8115159050919050565b6103c4816103b0565b82525050565b5f6020820190506103dd5f8301846103bb565b92915050565b7f4e487b71000000000000000000000000000000000000000000000000000000005f52601160045260245ffd5b5f61041a826102b6565b9150610425836102b6565b925082820190508082111561043d5761043c6103e3565b5b92915050565b5f61044d826102b6565b9150610458836102b6565b92508282039050818111156104705761046f6103e3565b5b92915050565b5f6040820190506104895f8301856102bf565b61049660208301846102bf565b939250505056fea2646970667358221220e124fd22504bbbcf9b422856414f43bf3f7255bb9ff23059d14625ad8accc46264736f6c63430008180033",
      "linkReferences": {}
   },
   "methodIdentifiers": {
      "advanceNonce(uint8)": "72c244a8",
      "increaseNonce()": "c53a0292",
      "nonce(address)": "70ae92d2",
      "nonceEquals(address,uint256)": "cf6fc6e3"
   },
   "id": 132
}